:100000000C943A000C9457000C9457000C94570031
:100010000C9457000C9457000C9457000C94570004
:100020000C9457000C9457000C9457000C945700F4
:100030000C9457000C9457000C9457000C945700E4
:100040000C9457000C9457000C9489070C944307A8
:100050000C9457000C9457000C9457000C945700C4
:100060000C9457000C9457001F1C1F1E1F1E1F1FAF
:100070001E1F1E1F11241FBECFEFD8E0DEBFCDBF55
:1000800014E0A0E0B1E0E2E3FAE102C005900D92D5
:10009000A23DB107D9F716E0A2EDB4E001C01D9270
:1000A000A333B107E1F70E94C8090C94170D0C9413
:1000B0000000CF92DF92EF92FF920F931F93AC015B
:1000C0009B0180EDBA0141E050E001E010E0EE2438
:1000D000FF24CC24DD240E94B4021F910F91FF90D5
:1000E000EF90DF90CF900895CF92DF92EF92FF9242
:1000F0000F931F939C017B0180EDB90141E050E01B
:1001000020E030E000E010E0E1E0CE2ED12C0E94B3
:10011000B4021F910F91FF90EF90DF90CF90089560
:10012000FC0180818C3340F481818C3340F481E088
:1001300090E02281283128F080E090E0089580E06E
:1001400090E00895DC0111962C911197822F815037
:100150008F31A0F41296EC911297EE2379F0ED30E6
:1001600068F413968C911397843658F4F0E0E959AB
:10017000FF4FE49181E090E0E21728F480E090E006
:10018000089580E090E00895CF92DF92EF92FF9281
:10019000CF93FC01DB0181811196CC9111972281D3
:1001A00030E060E17EE0269FA001279F500D369F42
:1001B000500D11242CE3829FC0011124480F591FB8
:1001C0008081480F511D6A01EE24D7FCE094FE2C7B
:1001D00012964C91129750E0469FC001479F900D98
:1001E000569F900D1124C29F90011124820F931FDE
:1001F0002C91820F911DAC01662757FD6095762FDB
:1002000081E04C155D056E057F0508F080E0CF911B
:10021000FF90EF90DF90CF900895CF93DF93EC01A4
:10022000862FFA0129816CE30E94DB09892F90E077
:10023000820F911D3A816CE370E00E94FB09282F28
:10024000630F711DCB0168E170E00E94FB0998818A
:10025000908321838283DF91CF9108950F931F9321
:10026000CF93DF9300D000D000D0CDB7DEB78C01A4
:1002700082E08B8381E08A831982CE010396BE01DE
:100280006A5F7F4F0E947400882319F5CE010296A1
:10029000BE016B5F7F4F0E9474008823D1F4CE01B2
:1002A0000196BE016C5F7F4F0E947400882389F421
:1002B0008E810E948D09F80182838D810E948D09B3
:1002C000F80181838C810E948D09F801808381E08F
:1002D00001C080E026960FB6F894DEBF0FBECDBFFA
:1002E000DF91CF911F910F9108950F931F93CF939B
:1002F000DF93CDB7DEB728970FB6F894DEBF0FBEF9
:10030000CDBF8C0183E08C8384E08B8385E08A837E
:1003100086E08983CE010496BE01685F7F4F0E940C
:100320007400882389F5CE010396BE01695F7F4F73
:100330000E947400882341F5CE010296BE016A5FD7
:100340007F4F0E9474008823F9F4CE010196BE010C
:100350006B5F7F4F0E9474008823B1F488850E94F0
:100360008D09F80180838F810E948D09F8018183B6
:100370008E810E948D09F80182838D810E948D09F2
:10038000F801838381E001C080E028960FB6F894DD
:10039000DEBF0FBECDBFDF91CF911F910F910895AA
:1003A0000F931F93CF93DF9300D000D000D0CDB731
:1003B000DEB78C010E949000882379F182E08E8361
:1003C00081E08D831C82F80182810E9482098B83E7
:1003D000F80181810E9482098A83F80180810E944C
:1003E00082098983CE010696BE016D5F7F4F0E9410
:1003F0005900882391F4CE010596BE016E5F7F4FB0
:100400000E945900882349F4CE010496BE016F5F13
:100410007F4F0E94590091E0811190E0892F26962C
:100420000FB6F894DEBF0FBECDBFDF91CF911F9105
:100430000F9108950F931F93CF93DF93CDB7DEB73E
:1004400028970FB6F894DEBF0FBECDBF8C010E9477
:10045000A200882309F475C083E0888784E08F8335
:1004600085E08E8386E08D83F801418150E0228112
:1004700080E090E007C0FC01E859FF4FE4914E0F87
:10048000511D0196382F3F5F3217A8F3233030F00B
:10049000F8018381837011F44F5F5F4FF80163812E
:1004A00070E08DE691E0689F9001699F300D789F24
:1004B000300D11242B5F3F4FCB0103969595879507
:1004C00095958795280F391F240F351FC90167E0BF
:1004D00070E00E94E7090E9482098C83F801818103
:1004E0000E9482098B83F80182810E9482098A839B
:1004F000F80183810E9482098983CE010896BE019A
:100500006C5F7F4F0E9459008823D9F4CE01079673
:10051000BE016D5F7F4F0E945900882391F4CE0188
:100520000696BE016E5F7F4F0E945900882349F4F2
:10053000CE010596BE016F5F7F4F0E94590091E08A
:10054000811190E0892F28960FB6F894DEBF0FBE78
:10055000CDBFDF91CF911F910F9108951092B900F7
:100560008DE18093B8000895CF92DF92EF92FF92D1
:100570000F931F93CF93DF93EB01D901F70141153F
:10058000510521F40115110509F451C094EA909325
:10059000BC009091BC0097FFFCCF9091B900987F70
:1005A000983009F09CC0982F9E7F9093BB0094E8F0
:1005B0009093BC009091BC0097FFFCCF9091B90044
:1005C000987F9831A9F0903209F089C083C0999141
:1005D0009093BB002093BC009091BC0097FFFCCF90
:1005E0009091B900987F41505040983211F015C059
:1005F00024E84115510559F714C09D919093BB0013
:100600002093BC009091BC0097FFFCCF9091B90063
:10061000987F01501040983229F0903309F05FC064
:1006200059C024E80115110541F791E001C090E09F
:10063000C114D10409F44BC0992311F428E001C07E
:1006400020E194EA9093BC009091BC0097FFFCCF0E
:100650009091B900987F921709F041C08160809312
:10066000BB0084E88093BC008091BC0087FFFCCF76
:100670009091B900987F9034A9F0983481F52AC000
:100680008093BC009091BC0097FFFCCF9091B90083
:10069000987F0894C108D108903509F59091BB0066
:1006A000919301C084EC91E0C916D10449F784E824
:1006B0008093BC008091BC0087FFFCCF9091B90073
:1006C000987F983561F48091BB00808302C09923A4
:1006D00029F090E084E98093BC0001C090E0892F6C
:1006E000DF91CF911F910F91FF90EF90DF90CF900E
:1006F0000895209A289A0E94230708950E946D0762
:100700000895209A28980E9423070895CF92DF9297
:10071000FF920F931F93CF93DF930F92CDB7DEB766
:10072000F82E082F192FCC24DD240AC00894C11CF0
:10073000D11CF80181918F0199830E9481039981D5
:10074000AF2DB92FFD0101900020E9F73197EA1B89
:10075000FB0BCE16DF0650F30E943B078823E1F324
:100760000F90DF91CF911F910F91FF90DF90CF906D
:100770000895CF92DF92EF92FF920F931F93CF9342
:10078000DF93CDB7DEB729970FB6F894DEBF0FBE63
:10079000CDBF00E010E090E0E92E91E0F92EC82EE8
:1007A000DD2400D000D000D0EDB7FEB7319681E057
:1007B00090E08C0F9D1F800F911FADB7BEB71296B2
:1007C0009C938E931197F382E2829601002E02C0D1
:1007D000220F331F0A94E2F781E090E027FD02C068
:1007E00080E090E0958384830E940E0A0F5F1F4F84
:1007F0008DB79EB706960FB6F8949EBF0FBE8DBFFD
:100800000830110571F6CE0101960E9486032996E3
:100810000FB6F894DEBF0FBECDBFDF91CF911F9111
:100820000F91FF90EF90DF90CF9008950F931F935B
:10083000CF93DF93CDB7DEB72A970FB6F894DEBF1C
:100840000FBECDBF00D000D000D0EDB7FEB73196BF
:100850008E010F5F1F4FADB7BEB712961C930E935C
:10086000119720E031E033832283848315820E9434
:100870000E0A8DB79EB706960FB6F8949EBF0FBEB0
:100880008DBFC8010E9486032A960FB6F894DEBF7A
:100890000FBECDBFDF91CF911F910F9108950F93A0
:1008A0001F93CF93DF93EC018A810E94160403E02B
:1008B00011E0C8010E94860389810E941604C801C4
:1008C0000E94860388810E941604DF91CF911F91B8
:1008D0000F9108950F931F93CF93DF93EC018A81BB
:1008E0000E94160405E011E0C8010E948603898178
:1008F0000E941604C8010E9486038B810E94160480
:10090000DF91CF911F910F9108950F931F93CF9374
:10091000DF93EC0187E091E00E94860388810E94CA
:10092000B9030DE011E0C8010E94860380E191E067
:100930000E94860389810E94B903C8010E94860330
:100940008FE191E00E9486038A810E941604C8010B
:100950000E9486038BE291E00E9486038B810E94B5
:100960001604C8010E9486038DE391E00E9486036D
:10097000CE0104960E944F048AE491E00E9486030F
:10098000CE0107960E944F04C8010E948603DF91A2
:10099000CF911F910F9108950F931F93CF93DF93E2
:1009A0008C0185E591E00E948603C0E0D0E0CE0195
:1009B000880F991F9E0143E0220F331F4A95E1F7EC
:1009C000820F931F800F911F0E9485048DE091E09C
:1009D0000E9486032196C830D10549F789E691E047
:1009E0000E948603F801E05BFF4F80810E9416049D
:1009F0008DE091E00E948603DF91CF911F910F91CE
:100A000008958CE791E00E948603F999FECFF8944F
:100A100080EE94E060E070E041E550E00E940E0C52
:100A200078948EE991E00E94860380EE94E00E9423
:100A3000CC048DEB91E00E948603089581E0089537
:100A400008950E94790308950E9481078823E1F7A1
:100A50000E947E030895CF93DF93EC0182E40E940D
:100A600079030DC00E94240591E0882309F490E0E9
:100A7000988305C086E40E94790380E00DC00E943F
:100A80002405813479F38334A9F784E40E9479033F
:100A900083E40E94790381E0DF91CF910895CF93A1
:100AA000DF93EC0180EC91E00E94860384E20E94D7
:100AB000790311C00E94240589830DC00E9424057A
:100AC0008A8309C00E9424058B8305C088E20E94A6
:100AD000790380E023C00E942405823279F38332B7
:100AE00018F4813299F7E6CF833261F3853271F7DA
:100AF000CE010E941A02882331F0809131058823AB
:100B000011F086E201C087E20E94790385E20E942B
:100B100079038DED91E00E94860381E0DF91CF9112
:100B20000895CF93DF93EC018CEF91E00E94860350
:100B300084E10E94790311C00E94240588830DC0BE
:100B40000E942405898309C00E9424058A8305C068
:100B500088E10E94790380E023C00E94240582314D
:100B600079F3833118F4813199F7E6CF833161F35A
:100B7000853171F7CE010E94D001882331F0809138
:100B80003205882311F086E101C087E10E947903D4
:100B900085E10E94790389E192E00E94860381E069
:100BA000DF91CF9108950F931F93CF93DF93EC01C3
:100BB00088E392E00E94860386E30E9479038E0117
:100BC0000C5F1F4F0E9424058333F1F0843328F417
:100BD000813351F08233F1F50FC0853349F185330C
:100BE000D8F08733B9F52CC085E592E00E948603E2
:100BF0000E9424058883E6CF82E792E00E94860364
:100C00000E9424058983DECF80E992E00E9486035A
:100C10000E9424058A83D6CF8AEA92E00E94860346
:100C20000E94240591E0882309F490E09B83CACFB9
:100C300085E592E00E948603C8010E949105C2CF1B
:100C40008BEC92E00E948603CE010E94CE0788239F
:100C500031F40CC080E40E94790380E012C088E384
:100C60000E947903CE010E94850403C089E30E949B
:100C7000790387E30E94790380EF92E00E94860364
:100C800081E0DF91CF911F910F9108951F93CF9332
:100C9000DF93CDB7DEB762970FB6F894DEBF0FBE15
:100CA000CDBF8FE093E00E94860310923205109230
:100CB000310585E00E94790311E00E94240583300C
:100CC000D1F0843028F4813041F0823001F50CC03D
:100CD0008430B1F08630D9F41DC080933205CE0146
:100CE00002960E94910510C010933105CE01059621
:100CF0000E944F0509C0CE0109960E94D30504C089
:100D0000CE0101960E942B05882321F0D6CF87E0E3
:100D10000E94790386E00E9479030E943B078823A2
:100D2000E1F387E293E00E94860362960FB6F8949F
:100D3000DEBF0FBECDBFDF91CF911F910895789494
:100D40000E9411070E9401050E94C7071092D60455
:100D500081E08093D8041092D704089581E493E051
:100D60000E9486030E94460681E08093D80408957D
:100D70008DE593E00E9486030E940D0981E0809337
:100D8000D804089588E793E00E94860381E0809369
:100D9000D80408950E947E038F3339F08E3719F0FE
:100DA000813251F406C082E001C088E08093D8040B
:100DB000089584E08093D8040895CF93DF930E9430
:100DC000CA06C9EDD4E0CE010E942E01CE010396E1
:100DD0000E9475010E947B088091D6040E94E3085E
:100DE000DF91CF91089584E993E00E94860380917A
:100DF000D804823069F0833018F48130D1F705C00F
:100E0000843049F08830A9F709C00E94DD06EFCF91
:100E10000E94AE06ECCF0E94B806E9CF0E94C2063F
:100E2000E6CF8FE290E09093C5008093C400E1ECA0
:100E3000F0E0808188608083808180618083808110
:100E40008068808308959091D5049F5F903809F45D
:100E500090E02091D4049217E1F3E091D504F0E002
:100E6000ED54FA4F80839093D5048091C100806245
:100E70008093C10008952091D5049091D40481E01D
:100E8000291380E008951F920F920FB60F9211243C
:100E90008F939F93EF93FF938091D404E82FF0E01A
:100EA000ED54FA4F90819093C6008F5F803809F41B
:100EB00080E08093D4049091D504891729F480911F
:100EC000C1008F7D8093C100FF91EF919F918F9121
:100ED0000F900FBE0F901F9018959091D2048091A3
:100EE000D304891761F0E92FF0E0ED5CFA4F8081BF
:100EF0009F5F903809F490E09093D20408958FEFAB
:100F000008952091D3049091D20481E0291380E0C8
:100F100008951F920F920FB60F9211242F938F9363
:100F20009F93EF93FF939091C6008091D3048F5FBE
:100F3000803809F480E02091D204821741F0E091DA
:100F4000D304F0E0ED5CFA4F90838093D304FF91DB
:100F5000EF919F918F912F910F900FBE0F901F9047
:100F60001895CF93DF939C01EB0189ED94E0B901D3
:100F70000E94C400882331F0CE0169ED74E00E9424
:100F8000C40002C080E090E0DF91CF91089587B166
:100F90008E6087B988B1817F88B90895EF92FF92FA
:100FA0000F931F93CF93DF938C018FEA93E00E94FE
:100FB0008603F80181810E94B9038DEB93E00E94C2
:100FC000860380EC93E00E948603F80180810E94F2
:100FD000B9038DEB93E00E9486038EEC93E00E94B0
:100FE000860344E0E42EF12CE00EF11EC7010E94BE
:100FF0004F048DEB93E00E94860380EE93E00E9405
:101000008603F80182810E9416048DEB93E00E9412
:101010008603C7010E949000882381F0F801808137
:101020000E949609882351F0F8018181882331F0CC
:101030008281882319F081E090E002C080E090E096
:10104000009719F480EF93E013C0E8012796C701D9
:10105000F8016281AE010E940D01C701BE010E942C
:10106000C400882349F0C8010E94850487E194E008
:101070000E94860380E038C08BE394E00E948603E0
:10108000C8010E948504F80180810E94A20990E0B5
:101090000196FC01EE0FFF1F33E0880F991F3A9570
:1010A000E1F7E80FF91FEA52FB4FD8018AE00D90F3
:1010B00001928150E1F7F999FECFF89480EE94E027
:1010C00060E070E041E550E00E941E0C789484E5F9
:1010D00094E00E94860380EE94E00E94CC048DEBA5
:1010E00093E00E94860381E0DF91CF911F910F91E1
:1010F000FF90EF900895CF92DF92EF92FF921F93AF
:10110000CF93DF93EE24FF2471E0C72ED12CC601CC
:101110000E2C02C0880F991F0A94E2F7182FC701FE
:101120000196EC01CC0FDD1F63E0880F991F6A95D3
:10113000E1F7C80FD91FCA52DB4F8091D704812332
:10114000B9F0BE01695F7F4FCE0104960E94B107DE
:10115000882371F410958091D60481238093D6045E
:101160008091D70481238093D70488E794E019C045
:101170008091D7048123B9F4BE01695F7F4FCE010E
:1011800004960E94B107882371F08091D604812BC8
:101190008093D6048091D704812B8093D7048DE867
:1011A00094E00E9486030894E11CF11C88E0E81694
:1011B000F10409F0ACCFDF91CF911F91FF90EF9038
:1011C000DF90CF9008954398429820E030E041E0CE
:1011D00050E0BA01022E02C0660F771F0A94E2F7B0
:1011E000682311F0419A01C04198439A43982F5FB8
:1011F0003F4F2830310569F7429A08958FEF0E94DA
:10120000E308089580E00E94E30808950E948107A2
:101210008823E1F70E947E03089581EA94E00E940A
:1012200086030E940609883009F442C0893098F488
:10123000843091F1853040F4823031F1833040F5D3
:10124000813009F05AC01CC09091D604863051F10B
:10125000873050F525C08431D9F1853140F4823191
:1012600079F1833188F5813109F047C025C0863195
:10127000B9F1863188F18731B9F18831F1F538C09B
:101280008091D604816037C08091D604826033C0DB
:101290008091D60484602FC08091D60488602BC0D2
:1012A000906103C0906201C090649093D60425C001
:1012B0008091D60480681FC08091D6048E7F1BC0A9
:1012C0008091D6048D7F17C08091D6048B7F13C088
:1012D0008091D604877F0FC08091D6048F7E0BC08B
:1012E0008091D6048F7D07C08091D6048F7B03C088
:1012F0008091D6048F778093D6048AEB94E00E9485
:1013000086030895282F6AE00E94DB09982F990F21
:10131000980F990F892F820F0895282F22952F70EB
:101320009AEF299F902D1124890F089501C0869569
:1013300080FD02C08230D8F791E0813009F090E062
:10134000892F089590E004C085959F5F983029F01B
:101350008823D1F7892F8150089580E00895ECE724
:10136000F0E080811082808180648083EAE7F0E091
:1013700080818074808380818068808380818760A1
:10138000808384B1866884B985B1897785B90895E9
:10139000F999FECFF89480EE94E060E070E041E5CA
:1013A00050E00E940E0C78940E949F060E94F30663
:1013B00080E090E00895991B79E004C0991F96178A
:1013C00008F0961B881F7A95C9F780950895AA1B87
:1013D000BB1B51E107C0AA1FBB1FA617B70710F020
:1013E000A61BB70B881F991F5A95A9F78095909552
:1013F000BC01CD01089597FB092E07260AD077FD81
:1014000004D0E5DF06D000201AF4709561957F4F77
:101410000895F6F7909581959F4F0895AEE0B0E05E
:10142000E4E1FAE00C94EE0C0D891E8986E08C83D1
:101430001A8309838FEF9FE79E838D83AE01475EFA
:101440005F4FCE0101966F89788D0E94300AEF813F
:10145000F885E00FF11F10822E96E4E00C940A0D3F
:10146000ADE0B0E0E6E3FAE00C94E00C3C017D87EF
:101470006C875A01FC0117821682838181FFC8C1E3
:101480002E010894411C511CF3019381EC85FD85CC
:1014900093FD859193FF8191FD87EC87882309F463
:1014A000B3C1853241F493FD859193FF8191FD870E
:1014B000EC87853229F490E0B3010E94560CE4CF0A
:1014C000FF24EE2410E01032B0F48B3269F08C323D
:1014D00028F4803251F0833271F40BC08D3239F030
:1014E000803349F411602CC01260146029C0186068
:1014F00027C0106125C017FD2EC0282F20532A3089
:1015000098F416FF08C08F2D880FF82EFF0CFF0CE3
:10151000F80EF20E15C08E2D880FE82EEE0CEE0C94
:10152000E80EE20E10620CC08E3221F416FD6CC182
:10153000106406C08C3611F4106802C0883659F465
:10154000EC85FD8593FD859193FF8191FD87EC8767
:10155000882309F0B8CF982F9554933018F0905203
:10156000933038F424E030E0A20EB31E3FE3398319
:101570000FC0833631F0833781F0833509F05AC0CC
:1015800022C0F5018081898322E030E0A20EB31EE3
:1015900021E0C22ED12C420114C092E0292E312C20
:1015A0002A0C3B1CF5018080918016FF03C06F2D33
:1015B00070E002C06FEF7FEFC4010E944B0C6C0122
:1015C00051011F7715C082E0282E312C2A0C3B1CBC
:1015D000F5018080918016FF03C06F2D70E002C07E
:1015E0006FEF7FEFC4010E94400C6C011068510145
:1015F00013FD1CC006C080E290E0B3010E94560CAF
:10160000EA948E2D90E0C816D906A8F30FC0F40115
:1016100017FD859117FF81914F0190E0B3010E9462
:10162000560CE110EA940894C108D108C114D10401
:1016300071F7E7C0843611F0893651F5F50117FFCF
:1016400007C080819181A281B38124E030E008C08D
:1016500080819181AA2797FDA095BA2F22E030E0E2
:10166000A20EB31E012F0F76B7FF08C0B095A0954C
:10167000909581959F4FAF4FBF4F0068BC01CD0142
:10168000A2012AE030E00E94820CD82ED4183FC07C
:10169000853721F41F7E2AE030E020C0197F8F3685
:1016A000A9F0803720F4883509F0AEC00BC0803730
:1016B00021F0883709F0A8C001C0106114FF09C0EB
:1016C000146007C014FF08C0166006C028E030E0B0
:1016D00005C020E130E002C020E132E0F50117FF53
:1016E00007C0608171818281938144E050E006C02F
:1016F0006081718180E090E042E050E0A40EB51E70
:10170000A2010E94820CD82ED418012F0F7706FF59
:1017100009C00E7FDF1430F404FF06C002FD04C0D0
:101720000F7E02C01D2D01C01F2D802F90E004FFF1
:101730000CC0FE01ED0DF11D2081203311F4097E56
:1017400009C002FF06C01E5F05C086789070009732
:1017500009F01F5F802E992403FD12C000FF0DC009
:10176000FD2C1E1550F4FE0CF11A1E2D06C080E251
:1017700090E0B3010E94560C1F5F1E15C0F304C019
:101780001E1510F4E11A01C0EE2484FE0FC080E3A0
:1017900090E0B3010E94560C82FE1FC081FE03C080
:1017A00088E590E010C088E790E00DC0C40186781D
:1017B0009070009791F081FC02C080E201C08BE242
:1017C00007FD8DE290E0B3010E94560C06C080E355
:1017D00090E0B3010E94560CFA94DF14C0F3DA943F
:1017E000F201ED0DF11D808190E0B3010E94560CD5
:1017F000DD20A9F706C080E290E0B3010E94560CFC
:10180000EA94EE20C1F740CEF3018681978102C0B1
:101810008FEF9FEF2D96E2E10C94FC0CDC01CB01E5
:10182000FC01F999FECF06C0F2BDE1BDF89A3196F0
:1018300000B40D9241505040B8F70895DC01A40F58
:10184000B51F4150504048F0CB01840F951F2E9199
:101850000E942F0C41505040D0F70895262FF9993F
:10186000FECF92BD81BDF89A019700B4021639F0FF
:101870001FBA20BD0FB6F894FA9AF99A0FBE0895D0
:10188000FC010590615070400110D8F7809590954B
:101890008E0F9F1F0895FC01615070400190011050
:1018A000D8F7809590958E0F9F1F08950F931F93E3
:1018B000CF93DF938C01EB018B8181FF1BC082FFF3
:1018C0000DC02E813F818C819D812817390764F4DA
:1018D000E881F9810193F983E88306C0E885F985F9
:1018E000802F0995009731F48E819F8101969F8307
:1018F0008E8302C00FEF1FEFC801DF91CF911F91C0
:101900000F910895FA01AA27283051F1203181F171
:10191000E8946F936E7F6E5F7F4F8F4F9F4FAF4FF7
:10192000B1E03ED0B4E03CD0670F781F891F9A1F0A
:10193000A11D680F791F8A1F911DA11D6A0F711DBE
:10194000811D911DA11D20D009F468943F912AE0CA
:10195000269F11243019305D3193DEF6CF010895B2
:10196000462F4770405D4193B3E00FD0C9F7F6CFE3
:10197000462F4F70405D4A3318F0495D31FD4052AB
:10198000419302D0A9F7EACFB4E0A6959795879541
:1019900077956795BA95C9F7009761057105089520
:1019A0009B01AC010A2E06945795479537952795CC
:1019B000BA95C9F7620F731F841F951FA01D089564
:1019C0002F923F924F925F926F927F928F929F924F
:1019D000AF92BF92CF92DF92EF92FF920F931F933D
:1019E000CF93DF93CDB7DEB7CA1BDB0B0FB6F894EE
:1019F000DEBF0FBECDBF09942A88398848885F842E
:101A00006E847D848C849B84AA84B984C884DF809E
:101A1000EE80FD800C811B81AA81B981CE0FD11D82
:101A20000FB6F894DEBF0FBECDBFED010895F89458
:021A3000FFCFE6
:101A32002564003A002F005A6F6E6520000D0A00DF
:101A420044617973206F66205765656B3A200020E8
:101A52004475726174696F6E3A20004D6F697374D8
:101A62007572652073656E736F723A2000537461EC
:101A720072742054696D653A2000456E6420546981
:101A82006D653A200053797374656D2053657474E3
:101A9200696E67733A200D0A0057617465722053AC
:101AA20061766572204D6F64653A20004C6F616407
:101AB200696E672073657474696E67732066726FEE
:101AC2006D20454550524F4D2E2E2E0D0A00526567
:101AD20061642073657474696E67732066726F6DDA
:101AE20020454550524F4D2E2E2E0D0A000D0A0054
:101AF20053657475702064617465206C6F6F70201B
:101B020072756E6E696E672E2E2E0D0A0053657405
:101B120075702064617465206C6F6F7020636F6DE7
:101B2200706C657465642E2E2E0D0A0053657475F3
:101B3200702074696D65206C6F6F702072756E6EA7
:101B4200696E672E2E2E0D0A00536574757020740F
:101B5200696D65206C6F6F7020636F6D706C65745A
:101B620065642E2E2E0D0A005365747570207A6FEF
:101B72006E65206C6F6F702072756E6E696E672E67
:101B82002E2E0D0A0057616974696E6720666F72A6
:101B9200207A6F6E65206E756D6265722E2E2E0D27
:101BA2000A0057616974696E6720666F722064610A
:101BB2007973206F66207765656B2E2E2E0D0A00D5
:101BC20057616974696E6720666F7220647572610D
:101BD20074696F6E2E2E2E0D0A0057616974696E3C
:101BE2006720666F72206D6F6973747572652073FA
:101BF200656E736F722E2E2E0D0A005A6F6E65205F
:101C0200736574757020656E6420636F6D6D616EAF
:101C1200642072656365697665642E2E2E0D0A0056
:101C22005365747570207A6F6E65206C6F6F7020CB
:101C3200636F6D706C657465642E2E2E0D0A0053F1
:101C420065747570206C6F6F702072756E6E696E40
:101C5200672E2E2E0D0A005365747570206C6F6FFF
:101C62007020636F6D706C657465642E2E2E0D0A84
:101C72000053797374656D207365747570206C6F91
:101C82006F7020656E74657265640D0A0053797316
:101C920074656D207A6F6E65206C6F6F7020656E53
:101CA20074657265640D0A0053797374656D2063FF
:101CB2006865636B206C6F6F7020656E746572650A
:101CC200640D0A004D61696E2073797374656D202D
:101CD2006C6F6F7020656E74657265640D0A0044E6
:101CE2006179206F66207765656B3A20000D0A00E6
:101CF2005A6F6E65206E756D6265723A20005A6F7A
:101D02006E652073746172742074696D653A200087
:101D12005A6F6E65206475726174696F6E3A200045
:101D2200496E76616C6964207A6F6E6520696E66B1
:101D32006F726D6174696F6E207265636569766535
:101D4200642E2E2E0D0A00496E76616C6964207A2B
:101D52006F6E65206475726174696F6E207265635F
:101D620065697665642E2E2E0D0A0056616C6964D3
:101D7200207A6F6E652072656365697665642E2EC2
:101D82002E0D0A005A6F6E652073657474696E6752
:101D9200732073746F72656420746F2045455052CE
:101DA2004F4D2E2E2E0D0A005A6F6E6520747572DD
:101DB2006E6564206F66662E2E2E0D0A005A6F6EB7
:101DC20065207475726E6564206F6E2E2E2E0D0A5C
:101DD20000557064617465207A6F6E652077616961
:101DE20074696E672E2E2E0D0A005570646174653B
:101DF200207A6F6E6520636F6D706C6574650D0A75
:021E02000000DE
:00000001FF
